:1000000099C00000B7C00000B5C00000B3C0000038
:10001000B1C00000AFC00000ADC00000ABC0000028
:10002000A9C00000A7C00000A5C00000A3C0000038
:10003000A1C0000049C600009DC000009BC0000098
:1000400099C0000097C0000095C0000093C0000058
:1000500091C000008FC000008DC000008BC0000068
:1000600089C0000087C0000085C0000083C0000078
:1000700081C000007FC000007DC000007BC0000088
:1000800079C0000077C0000075C0000073C0000098
:10009000F6C60000D8C600006DC000006BC00000AE
:1000A00069C0000067C00000FEC5000063C000001A
:1000B00061C000005FC000005DC000005BC00000C8
:1000C00059C0000057C0000055C0000053C00000D8
:1000D00051C000004FC000004DC000004BC00000E8
:1000E00049C0000047C0000045C0000043C00000F8
:1000F00041C000003FC000003DC000003BC0000008
:1001000039C0000037C0000035C0000033C0000017
:1001100031C000002FC000002DC000002BC0000027
:1001200029C0000027C0000025C0000023C0000037
:1001300021C0000011241FBECFEFD1E8DEBFCDBF2C
:1001400000E00CBF13E0A0E0B2E0E4E6F0E300E082
:100150000BBF02C007900D92A232B107D9F72BE175
:10016000A2E2B3E001C01D92A43BB207E1F79ED426
:100170000C94301845CFACE7B0E01C92EAE7F0E011
:1001800010829081892B80838C9190E4699FB001CB
:100190001124682B6C93808180688083EBE7F0E00A
:1001A00080818823ECF7EBE7F0E0808185FFFDCFCD
:1001B0000895ECE7F0E09081907E9083ABE7B0E0AB
:1001C0009C91977F9C939081892B8083EAE7F0E054
:1001D000808180648083808186FDFDCF809178005E
:1001E00090917900EAE7F0E020812061208391FF7F
:1001F00003C087519C4F089588519C4F0895CF9319
:10020000DF93D82FC62F8EEE0E9415148D2F0E94DB
:1002100048148C2F0E9448140E943F14DF91CF9104
:100220000895CF92DF92EF92FF920F931F93CF9397
:10023000DF93C82FF62ED72FE42E8EEE0E941514D2
:100240008C2F0E9448148FEE0E943D14EE2009F17D
:100250000F2D1D2FCC24CA94CE0CD12C8FEFC81A91
:10026000D80AC0E0D0E0F12CE1E0EE1AF108CE159A
:10027000DF0529F40E946514F801808304C00E9400
:100280005A14F801808321960F5F1F4FCC15DD05AE
:1002900071F70E943F14DF91CF911F910F91FF9052
:1002A000EF90DF90CF900895CF92DF92EF92FF9280
:1002B0006B017C01A2E2B3E026E733E0FD0144815B
:1002C0005581668177814193519361937193E217D0
:1002D000F307A9F7C0927203D0927303E0927403FC
:1002E000F092750360E070E0CB01CD90DD90ED9071
:1002F000FD906C0D7D1D8E1D9F1DA217B307A9F7E4
:1003000025E130E040E050E00E942D16CA01B9011D
:10031000FF90EF90DF90CF900895CF93DF931F92DF
:100320001F92CDB7DEB71A82198242E0BE016F5F1D
:100330007F4F8AEA76DF898190E0982F88272A818B
:10034000822B9093721B8093711B42E0BE016F5F02
:100350007F4F8CEA66DF898190E0982F88272A8179
:10036000822B90937A1B8093791B42E0BE016F5FD2
:100370007F4F8EEA56DF898190E0982F88272A8167
:10038000822B9093661B8093651B42E0BE016F5FDA
:100390007F4F80EB46DF898190E0982F88272A8164
:1003A000822B90935E1B80935D1B42E0BE016F5FCA
:1003B0007F4F82EB36DF898190E0982F88272A8152
:1003C000822B9093761B8093751B42E0BE016F5F7A
:1003D0007F4F84EB26DF898190E0982F88272A8140
:1003E000822B90936E1B80936D1B42E0BE016F5F6A
:1003F0007F4F86EB16DF898190E0982F88272A812E
:10040000822B90936C1B80936B1B42E0BE016F5F4D
:100410007F4F88EB06DF898190E0982F88272A811B
:10042000822B9093601B80935F1B42E0BE016F5F45
:100430007F4F8AEBF6DE898190E0982F88272A810A
:10044000822B9093741B8093731B42E0BE016F5FFD
:100450007F4F8CEBE6DE898190E0982F88272A81F8
:10046000822B9093781B8093771B42E0BE016F5FD5
:100470007F4F8EEBD6DE898190E0982F88272A81E6
:10048000822B9093701B80936F1B0F900F90DF91C6
:10049000CF910895CF92DF92EF92FF920F931F9327
:1004A000CF93DF931F921F92CDB7DEB71A821982C6
:1004B0006EE284EFA4DE8FE097E20197F1F700C0CF
:1004C000000042E0BE016F5F7F4F86EFAADE298108
:1004D000822F90E0A0E0B0E04427582F692F7A2FB8
:1004E0008A81482B80916D1B90916E1B9A01AB0104
:1004F000281B390B41095109A091751BB091761B3E
:100500000E9458166B017C010B2EBFE0F594E79416
:10051000D794C794BA95D1F7B02D6091771B70919D
:10052000781BCB01770FAA0BBB0BBC01CD01052EAD
:100530005BE0660F771F881F991F5A95D1F7502DE2
:1005400020916F1B3091701B8901330F220B330BED
:10055000A90198012C0D3D1D4E1D5F1D0E942D16F9
:10056000C20ED31EE41EF51EC092671BD092681BFC
:10057000E092691BF0926A1B0F900F90DF91CF9170
:100580001F910F91FF90EF90DF90CF9008954F92C1
:100590005F926F927F928F929F92AF92BF92CF9213
:1005A000DF92EF92FF920F931F93CF93DF93CDB71C
:1005B000DEB72B970FB6F894DEBF0FBECDBF198202
:1005C0001A821B8267DF64EF84EF19DE8FE19BECF8
:1005D0000197F1F700C0000043E0BE016F5F7F4F5D
:1005E00086EF1FDEC090671BD090681BE090691BF0
:1005F000F0906A1B97018601005A1F4021093109BA
:100600000C831D832E833F83A9019801CA01B90180
:100610000E94FC152B013C01A091651BB091661B4B
:100620000E9462164B015C01072E7DE0B594A794F1
:10063000979487947A95D1F7702DA0916B1BB09108
:100640006C1BA3019201012E1CE05595479537952F
:1006500027951A95D1F7102D0E946216BB2797FD9A
:10066000B095AB2F880D991DAA1DBB1D0296A11D2B
:10067000B11DB595A79597958795B595A79597952C
:1006800087959C01AD0130584F4F5F4FA0915D1B86
:10069000B0915E1B0E9458168B019C010F2EFFE04B
:1006A0003695279517950795FA95D1F7F02D088778
:1006B00019872A873B8789812A81422F50E060E091
:1006C00070E0762F652F542F4427682B8B818A0189
:1006D0009B01082BD901C8016C017D01689414F8B5
:1006E000F594E794D794C7941694D1F78090711B32
:1006F0009090721B092C000CAA08BB08880C991C4E
:10070000AA1CBB1C880C991CAA1CBB1CA0915F1BBB
:10071000B091601BA30192010E9462162B013C0163
:10072000032E37E175946794579447943A95D1F71F
:10073000302DA091791BB0917A1B2C813D814E8187
:100740005F810E946216DC01CB01072E7BE0B5952C
:10075000A795979587957A95D1F7702D480E591ED4
:100760006A1E7B1E840C951CA61CB71C880C991C49
:10077000AA1CBB1CA7019601281939094A095B0963
:10078000AAE6B8E10E94581699236CF0660F771F0D
:10079000881F991F288539854A855B850E940B161D
:1007A00069017A010CC0288539854A855B850E94DC
:1007B0000B1669017A01CC0CDD1CEE1CFF1C99277D
:1007C000F7FC9A958F2D7E2D6D2D9B01AC010E941B
:1007D000FC159B01AC01AEEDBBE00E9458164C012C
:1007E000BB2497FCB094AB2CA3E4B3EEA701960115
:1007F0000E946416BB2797FDB095AB2F880D991DFD
:10080000AA1DBB1D8153914FAF4FBF4F689413F882
:10081000B595A795979587951694D1F7BC01CD010D
:100820006C0D7D1D8E1D9F1D6093611B7093621B5F
:100830008093631B9093641B37DD6093611B7093FF
:10084000621B8093631B9093641B2B960FB6F894E6
:10085000DEBF0FBECDBFDF91CF911F910F91FF90F3
:10086000EF90DF90CF90BF90AF909F908F907F9050
:100870006F905F904F9008950DDE8091671B90916F
:10088000681BA091691BB0916A1B0896A11DB11D40
:10089000BC01CD01689413F8959587957795679578
:1008A0001694D1F70E94701520E030E040E251E448
:1008B0000C94D5140895CF930E94E8138AE18A9589
:1008C000F1F700C02ADDE6DDC5E161DEC150E9F7E0
:1008D000CF9108950F931F93CF93DC0119962C911C
:1008E000222381F08C01C0E0D8011796ED91FC9194
:1008F0001897EC0FF11D80814BD2CF5FF8018185F5
:10090000C81790F381E0CF911F910F910895CF9375
:10091000DF93EC018881882329F0219639D28991CF
:100920008111FCCFDF91CF91089580915104811105
:1009300004C08091760381110BC08CE092E0E7DF68
:1009400087EC90E00197F1F700C00000EECF08952A
:1009500082E594E088D381E080935104109276037D
:100960000895FF920F931F93CF93DF938C01892BF0
:10097000C9F0C0E0D0E041D2F82E909176039D36C8
:1009800009F4D3DFE0917603ED3640F481E08E0F79
:1009900080937603F0E0E958FC4FF0822196C0176F
:1009A000D10749F783E694E00E94711183E694E051
:1009B0000E94C811DF91CF911F910F91FF90089570
:1009C000B4CF0895EF92FF921F93CF93DF9389E006
:1009D00090E00E946816EC0180E8888380E290E055
:1009E0009B838A8380E1898382E090E00E9468167D
:1009F0009D838C8311E0FC011083118382E490E0DD
:100A000098878F831E8289E090E00E9468167C019F
:100A100049E0BC01CE01CBD099E0F701A4EEB3E0F0
:100A200001900D929A95E1F7E2E5F4E016821582C5
:100A30001783108782E0818784EE93E09387828713
:100A400089E080937603848782E395E096878587A3
:100A50006CDF80E392E05BDFDF91CF911F91FF902D
:100A6000EF90089510925104FC018785811104C014
:100A70008FE492E04CCF089588E692E048DF55CFAE
:100A80000895679908C080E00E94701310920A02CE
:100A900088EC90E0E6D07B9908C081E00E9470135A
:100AA00010920A0288EC90E0DCC00895CF93DF93A7
:100AB000CDB7DEB72A970FB6F894DEBF0FBECDBF15
:100AC0000E94FC1060E076E980E090E00CD10E948A
:100AD0005E130E94E813EFDE9D9883986F98A59AA5
:100AE0008B9A779A81E654D16DDF00E010E00F2EEB
:100AF000F3E6EF2EF4E0FF2EF02D0F2EF4E18F2E13
:100B0000912CA12CB12CF02D0F2EF0EECF2EF4E075
:100B1000DF2EF02D212C312C0E94031107D2809161
:100B2000700481111FC081E090E85AD288E890E0FB
:100B30005ED28FE00E942A1081E00E9426106AE6B1
:100B400074E081E05BD26AE674E082E057D2F7019C
:100B500086829782A086B1861286D486C38681E07B
:100B6000809370048EDF0032F3E01F07D1F484DE3F
:100B70002B013C018EE792E032D1C301B2010E9409
:100B80003D15DC01CB014AE0BE016F5F7F4F0E9443
:100B9000FD17CE01019623D18DE292E020D1022DE6
:100BA000132D0F5F1F4F84EC99E05BD0B5CFEF9210
:100BB000FF920F931F93CF93DF938C017B01FC0176
:100BC00080819181A281B381FB0180839183A28383
:100BD000B383C42FD0E0CE010497AE014750510932
:100BE000F801648175818E0D9F1D0E94EA1723977D
:100BF000CE0DDF1DF80186819781A08588839983BA
:100C0000AA83DF91CF911F910F91FF90EF900895EC
:100C100014BE0FB6F894A895809160008861809307
:100C20006000109260000FBEE1E6F0E080E8808393
:100C30001082789401C0089510927B1B80E197E2A6
:100C40009093A9008093A800E1EAF0E088E0808317
:100C5000808182608083E2E7F0E08081826080832F
:100C600008952091A4003091A500820F931FEAEA15
:100C7000F0E091838083208131818091A800909160
:100C8000A9008217930750F42091A8003091A90081
:100C900080819181821B930B9183808384E089BB47
:100CA000CA9BFECF08951F920F920FB60F92112488
:100CB0008F9380917B1B8F5F80937B1B8F910F9015
:100CC0000FBE0F901F9018951F920F920FB60F92A4
:100CD00011248F9381E0809371048F910F900FBE48
:100CE0000F901F901895DC01CB01880F991FAA1F48
:100CF000BB1F880F991FAA1FBB1F9C01AD01220FAC
:100D0000331F441F551F220F331F441F551F60E020
:100D100074E284EF90E00E940B16BA01A9014150E1
:100D2000510961097109BB27A72F962F852F809341
:100D3000CD004093CC0082E08093C80088E9809386
:100D4000C90086E08093CA00E0EAF7E08FE096E011
:100D50009187808780E991E095838483178216824A
:100D60001182108213821282E5E0F6E024E734E07B
:100D7000318720879583848317821682118210829F
:100D80001382128281E0809373041092720408959A
:100D9000CF93DF93E0EAF7E02681378164817581A4
:100DA00026173707C9F0C085D18542815381DA0102
:100DB0001196B383A283FE01E40FF51F80836A17A7
:100DC0007B0721F41092A3071092A2072F5F3F4FD9
:100DD0003093A7072093A607DF91CF910895CF9373
:100DE000DF93EC018881882329F02196D1DF899156
:100DF0008111FCCFDF91CF9108954FB7F894E5E0D2
:100E0000F6E02085318580819181BC016F5F7F4F45
:100E100071836083D901A80FB91F8C9160817181A2
:100E2000248135816217730721F41092060610920F
:100E30000506E5E0F6E02681378121503109378348
:100E400026834FBF08951F920F920FB60F92112461
:100E50000BB60F928F93EF93FF9381E0809373040F
:100E6000E9ECF0E080818F7D8083FF91EF918F919D
:100E70000F900BBE0F900FBE0F901F9018951F92F2
:100E80000F920FB60F9211240BB60F922F933F9330
:100E90004F935F936F937F938F939F93AF93BF9382
:100EA000EF93FF938091C8002091CE008C7159F58B
:100EB000E5E0F6E04681578184819581481759071E
:100EC00011F14085518582819381BC016F5F7F4F15
:100ED00073836283DA01A80FB91F2C9322813381B7
:100EE000848195812817390721F410920806109201
:100EF0000706E5E0F6E08681978101969783868371
:100F000081E080937204FF91EF91BF91AF919F9127
:100F10008F917F916F915F914F913F912F910F90A2
:100F20000BBE0F900FBE0F901F9018958091A607D3
:100F30009091A707009769F120917304222349F14A
:100F4000E0EAF7E06085718520813181A9014F5F7A
:100F50005F4F51834083DB01A20FB31F2C9164814B
:100F600075814617570721F41092A1071092A00728
:100F700001979093A7078093A6079FB7F8942093B3
:100F8000CE00E9ECF0E080818062808310927304EF
:100F90009FBF2FB7F8949091720410927204409101
:100FA0000B0650910C062FBF992311F0CA01D9CC22
:100FB0000895ECE7FBE1148215821182108217A2DA
:100FC00016A2E2E8FBE182EA9BE111921192E81796
:100FD000F907D9F74FD665D30DD140D08FC1089509
:100FE00090937D1B80937C1B0C94401008959093EC
:100FF0007F1B80937E1B0C942E100895E82FF0E049
:10100000EE0FFF1FEE57F44E71836083089591D366
:101010002FD74DC00895E091AA07F091AB07309704
:10102000D9F0228133812817390789F405C022813C
:1010300033812817390759F4DC01AD57BF4F2C9184
:10104000278713962C91208B22E0248305C00190E2
:10105000F081E02D309759F711C108951092AB0738
:101060001092AA070895FC01148217861382128237
:10107000ACE7BBE196968D919C91979701969796D8
:101080009C938E9396978091AA079091AB070097B7
:1010900039F411821082F093AB07E093AA07089508
:1010A00091838083F093AB07E093AA0708950F9391
:1010B0001F93CF93DF93E091AA07F091AB0730978E
:1010C00009F493C0EF018C81882321F0823009F468
:1010D00066C085C09AD08C01009721F482E08C8391
:1010E0008F8783C09B838A8381E08C83F801E957D3
:1010F000FF4F8BE098E0918380833197898582FB55
:10110000882780F980839985D8011B968C911B973D
:1011100090FB80F91B968C931B97998593FB9927DD
:1011200090F990FB82F91B968C931B97ECE7FBE1FF
:1011300084818F5F84831C968C931C97808191811E
:101140001E969C938E931D978D819E8150969C93A5
:101150008E931F978885982F9F7051968C915197E9
:10116000807F892B51968C9351979F819295907F88
:101170008F70892B51968C93F801EF57FF4F4C8558
:1011800050E06A857B85808191810E94EA17F80191
:1011900091818C85890F8183C8018FD526C0CE1798
:1011A000DF0741F4888199819093AB078093AA0768
:1011B0000AC0FC0180819181C817D907D1F78881C5
:1011C000998191838083ECE7FBE186A197A1019748
:1011D00097A386A3ED85FE85CE01199506C00990DB
:1011E000D881C02D209709F06ECFDF91CF911F914C
:1011F0000F910895ECEAF7E08AEB97E11082E75748
:10120000FF4FE817F907D1F708958091AC078823BD
:1012100059F0E5E3F8E06AEB77E181E090E0AC01BA
:101220002081211122C002C040E050E069E8649FA3
:101230009001659F300D1124C9018455984FFC0120
:1012400011926A95E9F740E1FC014183EF57FF4FA6
:101250002254384F31832083ECE7FBE126A137A1EC
:101260002F5F3F4F37A326A308950196E757FF4FFF
:10127000E617F707A1F680E090E00895FC011082E0
:10128000ECE7FBE186A197A1019797A386A30895B8
:10129000009741F0FC01E757FF4F87E1EA3BF80771
:1012A00018F015C0ECEAF7E08081882339F003C01C
:1012B0008081882319F08E2F9F2F0895E757FF4FC5
:1012C00087E1EA3BF807A0F380E090E0089580E032
:1012D00090E00895FC01DC01AD57BF4F1C92ACE7D4
:1012E000BBE114969C9114979F5F14969C9314975E
:1012F00094878D919C91968785870895AFEBB7E190
:1013000080E090E04FEF5FEFFD0134975183408321
:10131000FC01EE0FFF1FEE0FFF1FEE0FFF1FE81B7C
:10132000F90BE654F84E20812E7F20831C92019603
:1013300017968436910541F708950F931F93CF9325
:10134000DF93EBEBF7E120E030E0062F10E0408187
:10135000518148175907B1F4D901AA0FBB1FAA0F31
:10136000BB1FAA0FBB1FA21BB30BA654B84E4C91B8
:1013700046954170C42F40E0D42FC017D10711F417
:10138000CD0108C02F5F3F4F379624363105F9F65F
:1013900080E090E0DF91CF911F910F910895CF935E
:1013A000DF93EFEBF7E12BE73AE1C0E0D0E0DF01BC
:1013B00015978C9180FD0BC08081882369F0209760
:1013C00029F09D81891718F4ED0101C0ED013796D0
:1013D000E217F30761F7DE018C918D7080638C93C7
:1013E00080E815968C931597CD01DF91CF910895E4
:1013F000FC01808180FD05C08FEF9FEF9283818388
:10140000158208959ADF009721F0FC018381948171
:1014100008958FEF9FEF089590DF009709F0E8CFD0
:1014200008950F931F93CF93DF93FC0101851285DD
:1014300011232CF48585968508171907E1F5858118
:1014400096810196C1F1EF0160E08585968575DF93
:10145000FC01892BA1F08F8198850196F9F42091E8
:101460007C1B30917D1B8F85988928173907B1F433
:101470001483038380818F70806380830AC08FDF31
:10148000FC018D859E859283818389859A859483CD
:101490008383CD57DF4F888186830DC083819481FC
:1014A00008171907B1F3DE01AD57BF4F9C91868134
:1014B0008917F0F2EECFDF91CF911F910F91089530
:1014C000CF93DF93FC01878590898F3F2FEF9207A1
:1014D000D9F1EF01638563FB662760F92EDFDC013C
:1014E000892B91F18C9180FD2FC0FE01ED57FF4FAC
:1014F0008081811119C08C918F7080638C931596B7
:101500008C9115978F5F15968C938F3FE9F4EFEBD5
:10151000F7E12BE73AE1808186958F5F80833796EC
:10152000E217F307C1F710C09C91892F82958F7045
:10153000815F8F70282F2295207F9F70922B9C9324
:10154000811102C0CD0154DFDF91CF910895CF9377
:10155000DF93FC01878590898F3F2FEF920729F455
:101560008FEF9FEF908787830EC0238522FF03C0F4
:101570009087878308C0EF01638563FB662760F966
:1015800041DF98878F83DF91CF910895AF92BF920B
:10159000CF92DF92EF92FF921F93CF93DF93EC01F4
:1015A0001B8513FB112710F9CF84D888612FC60142
:1015B00029DF019659F0FE01E957FF4F1182108291
:1015C000319782E08083CE0178D322C0AD84BE847F
:1015D0001CDE7C010097D1F07DDEF70181818A5FFE
:1015E0008183E957FF4F11821082F701B08AA786E5
:1015F000EF57FF4F0190F081E02D81E08083B282B0
:10160000A182D482C3821583C70157D3CE0136DEAF
:10161000DF91CF911F91FF90EF90DF90CF90BF901F
:10162000AF900895DC011796ED91FC9118971996EB
:101630008C91863031F4658183819481EDDE81E087
:10164000089580E00895DC0119962C9119972223C2
:1016500071F01796ED91FC9118972081222319F0D3
:10166000213019F006C0BDC30895DCCF089580E095
:10167000089580E00895BC01E8E8FAE12AEB3AE138
:1016800040E051E09081992319F091509083452FCB
:101690003596E217F307B1F7442311F0CB0178C672
:1016A0000895E8E8FAE18AEB9AE110823596E817A6
:1016B000F907D9F7E6E7FAE184E690E0A0E0B0E0C8
:1016C00086839783A087B18712868BE39BE09487FC
:1016D000838763E27BE080E091CC0895CF93DF9332
:1016E000DC01ED91FC91119721812838F9F42081DA
:1016F0002F7D2134D9F412962C912031B8F0EC01D1
:1017000084DD009799F020E2FC0120832A81218367
:101710002B81ED57FF4F20832C81319620834A8106
:1017200050E06881798102960E94EA17DF91CF919B
:1017300008952F923F924F925F926F927F928F9275
:101740009F92AF92BF92CF92DF92EF92FF920F9350
:101750001F93CF93DF93CDB7DEB72E970FB6F894D4
:10176000DEBF0FBECDBF00E010E00F2EF4E2DF2E93
:10177000F02D0F2EFCE78F2EFBE19F2EF02D6894AD
:10178000CC24C4F80F2EF8E84F2EFAE15F2EF02D8E
:101790000F2EF4E86F2EFAE17F2EF02D0F2EF6EBD0
:1017A000EF2EFAE1FF2EF02D312C212C5801DDC156
:1017B000D5018C91823209F407C118F4803241F0CE
:1017C000D4C1833209F4CCC1843209F4CCC1CDC177
:1017D000F501D0828385982F9A7009F0C6C12581C2
:1017E00036812F3F3F4F91F4D5011F968D919C91EB
:1017F0005097F401208131812817390719F001969B
:1018000009F0B3C1E2E2D501EC93AFC1D5011F9657
:101810002D913C9150972F3F3F4F11F480FDA5C172
:10182000F40120813181D5011D968D919C911E97E7
:101830002817390709F499C1C501F3DDF301432DD8
:10184000522D632D722D5E864D86AD85BE858C91A1
:10185000882309F46CC0D5011D962D913C911E97EB
:10186000808191812817390709F062C0F5019485BC
:10187000FA01EE0FFF1FEE0FFF1FE40FF51FEC57ED
:10188000F54E8281891B8830C8F5FA01EE0FFF1FE3
:10189000EE0FFF1FE40FF51FEC57F54E9381292F34
:1018A00030E0082E02C0359527950A94E2F720FF14
:1018B00012C0D4012D913C91F501878190852817A4
:1018C000390709F052C1638563FB662760F9878594
:1018D0009089A2DD4AC1FA01EE0FFF1FEE0FFF1F34
:1018E000E40FF51FEC57F54E21E030E002C0220F67
:1018F000331F8A95E2F7922B93833EC1FA01EE0FD4
:10190000FF1FEE0FFF1FE40FF51FEC57F54E9283FC
:10191000238130E08195A90102C0440F551F8A95AB
:10192000E2F7CA01816083838FE1848325C1BF010F
:101930004F5F5F4F8D859E8505969E878D87359677
:10194000EE15FF0509F081CF6115710509F40DC190
:10195000D5011D968D919C911E97FB0191838083EB
:101960001C968C91828321E023838FE1848386E718
:101970009AE10ED501C1D4012D913C91F5018785E5
:1019800090892817390781F0438542FD0BC0C501B6
:10199000E3D1D4012D913C91F501878590892817D9
:1019A000390711F0019621F4E2E2D501EC93DDC094
:1019B000D50117968D919C9118972817390709F032
:1019C000D4C083E28C93D1C01092831AF50121898F
:1019D00022952F70E22FF0E0EE0FFF1FEE57F44E2E
:1019E0000190F081E02D309709F463C0D5011D9678
:1019F0008D919C911E979A8389831F964D915C913E
:101A000050975C834B8351963C9151973F703D8337
:101A10002E83AF57BF4F6D917C9179876887950171
:101A20002E5F3F4F261B370BD50111963C91119726
:101A3000230F2A87AD57BF4F2C912B8711962C91DE
:101A40002C87D5011B962C91622F637022FD02C05A
:101A500030E001C030E2632B23FD02C030E001C062
:101A600030E4262F232B4F3F5F4F11F030E001C0B1
:101A700034E0232BD50119964D915C911A97841768
:101A8000950711F090E001C098E0822F892B8F8399
:101A9000D50115962D913C9116972F3F3F4F11F090
:101AA00090E001C09C2D892B8F83CE010196199562
:101AB00001C080E0F501938590FF80E0D501179685
:101AC0002D913C9118972F3F3F4F69F4F4014081CD
:101AD0005181D5011F962D913C9150974217530784
:101AE00011F493FF81E0F501258136812F3F3F4FAF
:101AF000A1F1D4012D913C912F3F3F4F71F18823EB
:101B000061F183DB8C01009741F1E4DBF801818115
:101B10008D5F8183E957FF4F11821082D5011B969B
:101B20008C911B9786958170F801938580FB91F9C4
:101B300093871D968D919C911E97908B8787EF5769
:101B4000FF4F0190F081E02D10828091831A8283F3
:101B50001C968C918183C801B0D0D501DC9205C060
:101B6000C50114DD02C0C50189DBC50191DB5C0143
:101B7000892B09F01DCE07C0F5018781908501965C
:101B800009F007CFF8CE2E960FB6F894DEBF0FBE41
:101B9000CDBFDF91CF911F910F91FF90EF90DF901C
:101BA000CF90BF90AF909F908F907F906F905F90FD
:101BB0004F903F902F900895EF92FF920F931F93B5
:101BC000CF937C0110E080E090E001E0C3E113C01E
:101BD000FC012081213179F4EC57FF4F20813181C4
:101BE0002150310931832083232B21F4FC01C08350
:101BF000102F01C0102F4CDB009751F7112311F06B
:101C0000C701C6D3CF911F910F91FF90EF90089518
:101C1000EF92FF920F931F93CF93DF937C0110E01D
:101C200080E090E001E0D7E1C0E116C0FC01208136
:101C3000263191F4EC57FF4F208131812150310939
:101C400031832083232B39F4FC01D083ED57FF4FE0
:101C5000C083102F01C0102F1BDB009739F7112311
:101C600011F0C70195D3DF91CF911F910F91FF9094
:101C7000EF9008951092D11A1092D01AE3ECFAE185
:101C800082E390E0A0E0B0E086839783A087B187ED
:101C9000128688E09EE094878387E6EBFAE18AE08B
:101CA00090E0A0E0B0E086839783A087B18712869A
:101CB0008CED9DE0948783870895CF93DF93EC01AB
:101CC000FC01EA57FF4F808181FF03C092E19883B6
:101CD00002C092E19883FE01ED57FF4F108280FF12
:101CE00005C02FEF3FEF3E832D8306C020917E1B62
:101CF00030917F1B3E832D83857019F4CE0127DC44
:101D000004C08F85988998878F83ECE7FBE18081F9
:101D100091819A87898785818F5F85838C838F8165
:101D20009885019671F481E498E89B838A830E94E8
:101D3000DC17CC57DF4F87709927019699838883EA
:101D400008C081E698E89B838A83CC57DF4F1982CD
:101D50001882DF91CF9108950F931F93CF93DF9354
:101D60008C0153DAEC01892BB9F182E18883F80107
:101D700081818983FE01ED57FF4F10820E94DC179D
:101D8000FE01EC57FF4F877099270196918380835E
:101D9000339611821082F801418150E0B8016E5FE4
:101DA0007F4FCE0102960E94EA1781E498E89B8358
:101DB0008A838FEF9FEF98878F83F80185819681C3
:101DC0009E838D83ECE7FBE1808191819A878987EF
:101DD00085818F5F85838C83DF91CF911F910F91D8
:101DE0000895CF93DF93FC01C781D085818583302F
:101DF000C1F480E090E010C0FC012081263161F444
:101E000034852981321308C027E120832A81EA57CB
:101E1000FF4F208381E006C03BDA009769F780E03E
:101E200001C080E0DF91CF910895E091D01AF09148
:101E3000D11A813021F048F0823019F004C080E2DC
:101E400005C081E203C081E001C080E0DF01AD5741
:101E5000BF4F8C9385E180831092D11A1092D01AD3
:101E6000ECE7FBE186A197A1019797A386A30895CC
:101E70009F92AF92BF92CF92DF92EF92FF920F9319
:101E80001F93CF93DF93C0E0D0E00F2EF4E1AF2E8D
:101E9000F02D0CE71BE10F2EF7E1DF2EF02D0F2EBA
:101EA000F6E19F2EF02D0F2EF9E2EF2EF12CF02D02
:101EB0000F2EF3E1CF2EF02D0F2EF1E1BF2EF02DDE
:101EC00060C088818331C1F018F4823139F059C083
:101ED000853149F1873109F445C053C0FE01EC5703
:101EE000FF4F80819181892B29F0B88286EB9AE19E
:101EF0004FD247C0C88245C08091D01A9091D11A64
:101F0000892B09F03EC0D093D11AC093D01AA88271
:101F10006981CE010296CBD0F80186A197A10196E6
:101F200097A386A32EC0FE01ED57FF4F808181113C
:101F300017C02D853E85F8018081918128173907CA
:101F400069F48B8580FF0AC09882FE01EC57FF4F31
:101F5000F182E08283EC9AE11BD213C0D88211C0D7
:101F6000D8820FC0CE01ACDAFE01E957FF4F0190D5
:101F7000F081E02D309719F4CE0180D902C0CE0156
:101F80001995CE0185D9EC01892B09F09ACFDF9103
:101F9000CF911F910F91FF90EF90DF90CF90BF9066
:101FA000AF909F9008958091D21A982F9F70E4E58A
:101FB000F1E08081807F892B80838091D21A8823F1
:101FC00029F08091D31A8093530108958091D31AF8
:101FD000982F9F71E8E4F1E08081807E892B8083D7
:101FE000089593E090934201E1E4F1E090819F71C4
:101FF0009830E1F780934201E1E4F1E090819F7134
:102000009813FCCF089588E0ECDF8FEF80934F01A9
:102010008091D41A882311F086E1E3CF0895E9E393
:10202000F1E08081816080831092D41A1092D21ADC
:1020300081E08093551B88E0D4DF8BEE80935601BE
:10204000ECE4F1E080818068808308958093D41A65
:10205000DACF08958093D31AA6CF0895CF93DF9354
:102060001F921F92CDB7DEB79A8389838093620156
:102070008A81809363010F900F90DF91CF91089533
:10208000CF93DF931F921F92CDB7DEB79A838983D8
:10209000809360018A81809361019A818981890F8F
:1020A00080936D010F900F90DF91CF9108950F9362
:1020B0001F93CF938C01C62F89E193DF8FEF80931D
:1020C0004F0182E08C0F80938001CC2381F0F801D6
:1020D000C1502C2F30E02F5F3F4FC801820F931F5C
:1020E000A1E8B1E021912D93E817F907D9F783E032
:1020F0008093551B82E080934201CF911F910F91F5
:1021000008951F93CF93DF9300D01F921F92CDB7F6
:10211000DEB78091551B823009F465C080914F0174
:1021200083FF3EC0A0917B016A2F70E0AB014F5F3F
:102130005F4F80E090E020E0FC01E058FE4F3081EE
:10214000FC01EB52F54E30832F5F822F90E0841715
:10215000950794F385ED9AE19A838983A250AB8326
:10216000FB01EB52F54E80818C83809147018A55AB
:102170008D83CE010196B2DAE1E4F1E080818F71C6
:102180008631E1F7EFE4F1E0808188608083ECE460
:10219000F1E080818F77808380818068808323C095
:1021A00080914F0186FF1FC0809141018F7189315D
:1021B000A9F41091420112951695177049F0133049
:1021C00021F0153021F013E003C011E001C012E04E
:1021D0001ADF81E08093551B812F27DEEFE4F1E0C9
:1021E0008081806480830F900F900F900F900F90EC
:1021F000DF91CF911F9108950E9408066DD00FDFE7
:102200000C94D90708957DDF0E940708CCC008957B
:102210000F931F93CF93DF93EC018091561B909106
:10222000571B009709F445C04E815F816885798509
:10223000FC01028113812481358140175107620717
:10224000730760F0DC0117C002811381248135819E
:10225000401751076207730768F403C0FC01A0E050
:10226000B0E0041B150B260B370B0283138324836A
:1022700035830AC0DF01401B510B620B730BED91DC
:10228000FC911197309701F74A835B836C837D83C0
:10229000109741F08D919C91119799838883CD93EC
:1022A000DC9315C099838883D093571BC093561B2A
:1022B0000EC0198218828E819F81A885B9858A8374
:1022C0009B83AC83BD83D093571BC093561BDF9178
:1022D000CF911F910F9108951092571B1092561B8A
:1022E0000895CF93DF93A091561BB091571B109781
:1022F00091F1A817B90751F50AC08E179F0729F564
:10230000109731F0208131812D933C9307C0FC015F
:10231000208131813093571B2093561B0190F0810F
:10232000E02D3097C1F04281538164817581EC01C9
:102330008A819B81AC81BD81840F951FA61FB71F29
:1023400082839383A483B58306C0DF01ED91FC9162
:102350001197309791F6DF91CF910895E091561B38
:10236000F091571B309771F0E817F90721F40CC072
:102370008E179F0759F00190F081E02D3097C1F73B
:1023800080E0089580E0089581E0089581E0089557
:10239000CF93DF93EC01E2DF811102C0CE0138DF81
:1023A000DF91CF910895CF92DF92EF92FF92CF937A
:1023B000DF9380917B1B882309F459C08FB7F89471
:1023C000C0907B1B10927B1B8FBFD12CE12CF12C7A
:1023D000CC0CDD1CEE1CFF1CD701C601880F991F19
:1023E000AA1FBB1F880F991FAA1FBB1FC80ED91E8B
:1023F000EA1EFB1EC091561BD091571B2097B9F1C6
:102400008A819B81AC81BD81C816D906EA06FB068C
:1024100010F1C81AD90AEA0AFB0A888199819093B7
:10242000571B8093561B8A85813011F4CE01F0DE54
:10243000EB85FC85CE011995C091561BD091571B99
:102440002097A9F08A819B81AC81BD81C816D906ED
:10245000EA06FB06F0F68A819B81AC81BD818C196E
:102460009D09AE09BF098A839B83AC83BD83DF913D
:10247000CF91FF90EF90DF90CF900895CF92DF92B1
:10248000EF92FF92CF93C8ECC12CD12C760180E162
:102490000E94D900BC0180E090E020D39B01AC01F8
:1024A000C701B6011ED26B017C0180E590E00E945D
:1024B0003106C15061F720E030E048E453E4C70141
:1024C000B60173D2DFD2CB01CF91FF90EF90DF90B6
:1024D000CF900895CF93DF93EC01892B31F088EEF4
:1024E00093E00E9431062197D1F7DF91CF910895B3
:1024F000CF93DF93853608F04FC0D82F80915C1BB7
:102500008F5F80935C1B80915C1B833308F047D006
:1025100080910B028D1700F52091581B3091591BAB
:1025200080910B024D2F481B3695279536952795A0
:10253000ABE7B4E1AED396958795489FC02D1124A3
:10254000729A7398CC2329F08AEF90E0C3DFC150D0
:10255000D9F7729873981EC020915A1B30915B1B5B
:10256000C0910B02CD1B3695279536952795ABE785
:10257000B4E18FD396958795C89FC02D112472988A
:10258000739ACC2329F086E990E0A4DFC150D9F7F3
:1025900072987398D0930B02DF91CF910895CF93E7
:1025A0008DE292E00E94EF0689E892E00E94EF0639
:1025B000C0910B0280E094D01092591B1092581BCE
:1025C00010925B1B10925A1B10925C1B729A7398AC
:1025D00080E293E07FDF52DF8531954088F02091E3
:1025E000581B3091591B2F5F3F4F3093591B20933D
:1025F000581B8AEF90E06EDF41DF8531954078F718
:10260000729873988DE292E00E94EF068EE992E054
:102610000E94EF068091581B9091591B4AE050E0B0
:1026200066EA7BE1E0D486EA9BE10E94EF068DE258
:1026300092E00E94EF067298739A80E293E04ADF7C
:102640001DDF8830974088F420915A1B30915B1B26
:102650002F5F3F4F30935B1B20935A1B86E990E01E
:1026600039DF0CDF8830974078F3729873981092B6
:102670000B028C2F3DDF8DE292E00E94EF0683EB90
:1026800092E00E94EF0680915A1B90915B1B4AE0FA
:1026900050E066EA7BE1A7D486EA9BE10E94EF0660
:1026A0008DE292E00E94EF068DE292E00E94EF063A
:1026B00089EC92E00E94EF06CF9108958DE292E0BE
:1026C0000E94EF0681EE92E00E94EF0662E084E055
:1026D0000E94BB006A9A6B9A7298739860CF0895B3
:1026E000CF93DF93811137C080910B02882309F4C7
:1026F0006AC080915C1B8F5F80935C1B80915C1B28
:10270000833308F04CDF7298739A80E293E0E2DE44
:10271000B5DEEC01C83087E0D80730F4AFDEEC015D
:10272000C83087E0D807D0F310920B021092A61B96
:1027300089EF92E00E94EF064AE050E066EA7BE112
:10274000CE0151D486EA9BE10E94EF068DE292E031
:102750000E94EF0638C08130B1F580910B028436BB
:1027600091F180915C1B8F5F80935C1B80915C1B5F
:10277000833308F014DF729A739880E293E0AADE44
:102780007DDEEC01C53185E0D80730F077DEEC0165
:10279000C53185E0D807D0F784E680930B0210920C
:1027A000A61B8DE093E00E94EF064AE050E066EA47
:1027B0007BE1CE0118D486EA9BE10E94EF068DE210
:1027C00092E00E94EF0672987398DF91CF9108957E
:1027D0001092B90088E88093B800089594EA909325
:1027E000BC00ECEBF0E090819923ECF79091B900FC
:1027F000987F983011F09031A1F48093BB0084E869
:102800008093BC00ECEBF0E080818823ECF79091A2
:10281000B900987F983139F081E0903429F480E054
:10282000089581E0089580E00895CF93DF93ECEB65
:10283000F0E024EAA9EBB0E0CBEBD0E034E844E9E7
:10284000208390819923ECF79C91987F983011F028
:102850009031B1F78883308390819923ECF79C9174
:10286000987F903211F0983529F44083908194FD3F
:10287000FDCFE6CFDF91CF910895B0CF089584E9E1
:102880008093BC00ECEBF0E0808184FDFDCF0895E7
:102890008093BB0084E88093BC00ECEBF0E0808187
:1028A0008823ECF79091B900987F81E0983209F481
:1028B00080E0089584EC8093BC00ECEBF0E0808134
:1028C0008823ECF78091BB00089584E88093BC00D6
:1028D000ECEBF0E080818823ECF78091BB00089559
:1028E0005058BB27AA270ED04DC13ED130F043D15E
:1028F00020F031F49F3F11F41EF433C10EF4E09543
:10290000E7FB29C1E92F4FD180F3BA17620773079C
:102910008407950718F071F49EF567C10EF4E095F1
:102920000B2EBA2FA02D0B01B90190010C01CA0189
:10293000A0011124FF27591B99F0593F50F4503E34
:1029400068F11A16F040A22F232F342F4427585F26
:10295000F3CF469537952795A795F0405395C9F73E
:102960007EF41F16BA0B620B730B840BBAF09150F6
:10297000A1F0FF0FBB1F661F771F881FC2F70EC095
:10298000BA0F621F731F841F48F487957795679568
:10299000B795F7959E3F08F0B3CF9395880F08F051
:1029A0009927EE0F9795879508950CD0EBC0E3D04B
:1029B00040F0DAD030F021F45F3F19F0CCC0511173
:1029C00015C1CFC0F0D098F39923C9F35523B1F3C3
:1029D000951B550BBB27AA2762177307840738F08E
:1029E0009F5F5F4F220F331F441FAA1FA9F333D0ED
:1029F0000E2E3AF0E0E830D091505040E695001CA1
:102A0000CAF729D0FE2F27D0660F771F881FBB1F5C
:102A1000261737074807AB07B0E809F0BB0B802D36
:102A2000BF01FF2793585F4F2AF09E3F510568F082
:102A300092C0DCC05F3FECF3983EDCF3869577955F
:102A40006795B795F7959F5FC9F7880F911D969584
:102A5000879597F90895E1E0660F771F881FBB1FE0
:102A6000621773078407BA0720F0621B730B840B8D
:102A7000BA0BEE1F88F7E095089504D06894B11161
:102A8000B5C0089598D088F09F5790F0B92F992736
:102A9000B751A0F0D1F0660F771F881F991F1AF069
:102AA000BA95C9F712C0B13081F09FD0B1E0089556
:102AB0009CC0672F782F8827B85F39F0B93FCCF3D7
:102AC000869577956795B395D9F73EF4909580955F
:102AD000709561957F4F8F4F9F4F0895E89409C07F
:102AE00097FB3EF490958095709561957F4F8F4F41
:102AF0009F4F9923A9F0F92F96E9BB279395F69557
:102B0000879577956795B795F111F8CFFAF4BB0FD4
:102B100011F460FF1BC06F5F7F4F8F4F9F4F16C038
:102B2000882311F096E911C0772321F09EE8872FC2
:102B3000762F05C0662371F096E8862F70E060E07E
:102B40002AF09A95660F771F881FDAF7880F9695F7
:102B5000879597F9089597F99F6780E870E060E09E
:102B600008959FEF80EC089500240A941616170626
:102B700018060906089500240A941216130614066E
:102B800005060895092E0394000C11F4882352F0D1
:102B9000BB0F40F4BF2B11F460FF04C06F5F7F4F89
:102BA0008F4F9F4F089557FD9058440F551F59F070
:102BB0005F3F71F04795880F97FB991F61F09F3F2A
:102BC00079F087950895121613061406551FF2CF53
:102BD0004695F1DF08C0161617061806991FF1CFA3
:102BE00086957105610508940895E894BB276627CA
:102BF0007727CB0197F90895DB018F939F9358D0E6
:102C0000BF91AF91A29F800D911DA39F900DB29F88
:102C1000900D11240895A1E21A2EAA1BBB1BFD01E1
:102C20000DC0AA1FBB1FEE1FFF1FA217B307E407AB
:102C3000F50720F0A21BB30BE40BF50B661F771F03
:102C4000881F991F1A9469F76095709580959095E3
:102C50009B01AC01BD01CF010895052E97FB16F431
:102C600000940FD057FD05D0D6DF07FC02D046F404
:102C700008C050954095309521953F4F4F4F5F4F7D
:102C8000089590958095709561957F4F8F4F9F4FD8
:102C90000895A29FB001B39FC001A39F700D811D35
:102CA0001124911DB29F700D811D1124911D089555
:102CB000F0DFA59F900DB49F900DA49F800D911DF6
:102CC00011240895B7FFF4CFF3DF821B930B08950F
:102CD000CF93DF938230910510F482E090E0E09191
:102CE000B21BF091B31B20E030E0C0E0D0E03097A1
:102CF00011F14081518148175907C0F04817590711
:102D000061F482819381209719F09B838A832BC081
:102D10009093B31B8093B21B26C02115310519F087
:102D20004217530718F49A01BE01DF01EF01028038
:102D3000F381E02DDCCF2115310509F1281B390B7A
:102D40002430310590F412968D919C911397611562
:102D5000710521F0FB019383828304C09093B31B20
:102D60008093B21BFD01329644C0FD01E20FF31FB8
:102D700081939193225031092D933C933AC0209135
:102D8000B01B3091B11B232B41F4209102023091F2
:102D900003023093B11B2093B01B209100023091AD
:102DA00001022115310541F42DB73EB740910402CF
:102DB00050910502241B350BE091B01BF091B11B23
:102DC000E217F307A0F42E1B3F0B2817390778F002
:102DD000AC014E5F5F4F2417350748F04E0F5F1F61
:102DE0005093B11B4093B01B8193919302C0E0E0DC
:102DF000F0E0CF01DF91CF9108950F931F93CF9310
:102E0000DF93009709F48CC0FC0132971382128281
:102E10000091B21B1091B31B0115110581F42081A3
:102E20003181820F931F2091B01B3091B11B281765
:102E3000390779F5F093B11BE093B01B71C0D8014D
:102E400040E050E0AE17BF0750F412962D913C9130
:102E50001397AD012115310509F1D901F3CF9D017A
:102E6000DA013383228360817181860F971F821775
:102E7000930769F4EC0128813981260F371F2E5FF3
:102E80003F4F318320838A819B8193838283452BAB
:102E900029F4F093B31BE093B21B42C01396FC934A
:102EA000EE931297ED01499159919E01240F351F20
:102EB000E217F30771F480819181840F951F0296C8
:102EC00011969C938E938281938113969C938E93FB
:102ED0001297E0E0F0E0D80112968D919C91139743
:102EE000009719F0F8018C01F6CF8D919C91980113
:102EF0002E5F3F4F820F931F2091B01B3091B11B6B
:102F00002817390769F4309729F41092B31B1092EF
:102F1000B21B02C0138212821093B11B0093B01B2C
:102F2000DF91CF911F910F9108958F929F92AF9251
:102F3000BF92CF92DF92EF92FF92CF93DF93EC019B
:102F4000688179818A819B8161157105810591056F
:102F500021F464E279ED8BE597E02DE133EF41E078
:102F600050E07BDE49015A019B01AC01A7EAB1E4C4
:102F70009FDE6B017C01ACEEB4EFA5019401A4DEF1
:102F8000DC01CB018C0D9D1DAE1DBF1DB7FF03C025
:102F90000197A109B04888839983AA83BB839F774F
:102FA000DF91CF91FF90EF90DF90CF90BF90AF90E7
:102FB0009F908F900895B9CF86E092E0B6CFA0E0C1
:102FC000B0E08093060290930702A0930802B093AA
:102FD00009020895FB01DC0102C001900D924150ED
:102FE0005040D8F708954532510518F4423008F0A2
:102FF00004C0FB011082CB010895BB274A3031F495
:10300000992322F4BDE2909581959F4F01C0BB2783
:10301000FB015527AA27880F991FAA1FA41710F094
:10302000A41B83955051B9F7A05DAA3308F0A95DA0
:10303000A193009779F7B111B1931192CB0100C020
:10304000DC01FC01672F71917723E1F7329704C00F
:103050007C916D9370836291AE17BF07C8F308959A
:04306000F894FFCF12
:103064000000B41B20000100000001FF5B45525228
:103074004F525D2042757379202D2063616E6E6F0F
:10308400742073656E64206461746121200D0A00EC
:103094000D0A5B494E464F5D202048656C6C6F20DD
:1030A4007061636B65742073656E74210D0A005B37
:1030B400494E464F5D202053656E6420636F6D70EA
:1030C4006C657465210D0A005B4552524F525D20B8
:1030D40053656E64206572726F72210D0A00546527
:1030E400706C6F74613A0D0A0043616C69627261BD
:1030F40074696F6E205374617274200D0A004675F2
:103104006C6C206F70656E2070756C7365733A20FB
:103114000D0A0046756C6C20636C6F7365207075C6
:103124006C7365733A200D0A0043616C69627261C5
:1031340074696F6E20636F6D706C657465200D0A21
:1031440000496E69745465726D6F73746174696358
:1031540056616C7665200D0A0056616C76652069AF
:103164007320636C6F7365643A200D0A0056616CBA
:103174007665206973206F70656E65643A200D0A68
:02318400000049
:00000001FF
